:020000022000DC
:1060000098F3002095160300136A0500811603001B
:1060100081160300811603008116030000000000B2
:10602000000000000000000000000000A5170300B1
:1060300081160300000000001517030081160300FD
:10604000B519030009730400B5190300B51903005D
:10605000B5190300B5190300B5190300B5190300FC
:10606000B5190300B5190300B5190300B5190300EC
:10607000B5190300B5190300B5190300B5190300DC
:10608000B5190300B5190300B5190300B5190300CC
:10609000B5190300B5190300B5190300B5190300BC
:1060A000B5190300B5190300B5190300B5190300AC
:1060B000B5190300B5190300B5190300B51903009C
:1060C000B5190300B5190300B5190300B51903008C
:1060D000B5190300B5190300B5190300B51903007C
:1060E000B5190300B5190300B5190300B51903006C
:1060F000B5190300B5190300B5190300B51903005C
:1061000053B94AB9002908BF00281CBF4FF0FF311E
:106110004FF0FF3000F00CB8ADF1080C6DE904CE83
:1061200000F022F8DDF804E0DDE9022304B0704756
:10613000704700BF10F8012B11F8013B012A28BF5E
:106140009A42F7D0D01A7047034611F8012B03F892
:10615000012B002AF9D17047034613F8012B002ABE
:10616000FBD1181A013870472DE9F04786468C4656
:106170000846089E154674461946002B40F0C2801A
:106180008542B2FA82F245D94AB1C2F1200300FA3F
:1061900002FC2EFA03F3954043EA0C0C94404FEABC
:1061A000154EA8B2BCFBFEF8230C0EFB18CC08FB66
:1061B00000F943EA0C43994528D9EB1808F1FF3759
:1061C00004D2994502D9A8F102072B44A3EB090395
:1061D000A4B2B3FBFEFC0EFB1C330CFB00F044EA44
:1061E0000344A04214D92C190CF1FF3304D2A0426D
:1061F00002D9ACF102032C44241A43EA07401EB131
:10620000D440002334607360BDE8F0874746DDE783
:106210006346F1E792BB431B01214FEA154EAFB233
:10622000B3FBFEFC200C0EFB1C330CFB07F840EA12
:106230000343984562D9EB180CF1FF3004D298451E
:1062400002D9ACF102002B44A3EB0803A4B2B3FBC8
:10625000FEFC0EFB1C330CFB07F744EA0344A74289
:106260004ED92C190CF1FF3304D2A74202D9ACF15C
:1062700002032C44E41B43EA0040C0E7C2F12003C0
:1062800020FA03F1954090402EFA03F303434FEABE
:10629000154EAFB2B1FBFEFC0EFB1C10190C0CFB33
:1062A00007F841EA0041884504FA02F422D9691846
:1062B0000CF1FF3004D2884502D9ACF10200294428
:1062C000A1EB08019BB2B1FBFEFC0EFB1C110CFB09
:1062D00007F743EA01439F420ED9EB180CF1FF3157
:1062E00004D29F4202D9ACF102012B44DB1B41EAEC
:1062F000004192E76046E3E76146F7E76046A3E7BF
:106300006346B7E7834206D916B9002108467BE702
:10631000C6E900E0F9E7B3FA83F78FB9834201D306
:10632000724508D8BEEB020460EB030301209C46D3
:106330001EB9002168E73846FAE7C6E9004CF8E7DD
:10634000C7F1200CBB4022FA0CF41C432EFA0CF1CE
:1063500020FA0CF3B84001434FEA14490EFA07F54E
:10636000B3FBF9F81FFA84FE09FB18300B0C08FB8D
:106370000EFA43EA00439A4502FA07F240D9E318BD
:1063800008F1FF3004D29A4502D9A8F10200234453
:10639000A3EB0A0389B2B3FBF9F809FB183308FB36
:1063A0000EFE41EA03418E452CD9611808F1FF33F6
:1063B00004D28E4502D9A8F10203214443EA0040E9
:1063C000A0FB0298A1EB0E014145CE46434602D305
:1063D00006D14D4504D2B9EB020E68EB0403013837
:1063E000002EA6D0B5EB0E0261EB030101FA0CFC06
:1063F00022FA07F34CEA0303F940C6E9003198E7B3
:106400004046C5E74346D9E7F7B5002101AA40F663
:1064100003400CF071FC044600286CD1019CE36839
:106420001B789BB90DF0E4FEBFF35B8FA54B1A6898
:10643000BFF35B8F02F00902BFF35B8F53E8001FCD
:1064400043E800200028F9D1BFF35B8F20460BF012
:1064500015FD01AA002141F203000CF04DFC044699
:10646000002848D1019A984DD168D1F80100D1F89F
:10647000051005F1780303C310460BF0FFFC21461D
:1064800001AA41F201000CF037FC044698BB0198C8
:10649000C3685A7885F870205A88A5F872201A794E
:1064A00085F87120B3F80720A5F87420B3F80530FB
:1064B000A5F876300BF0E2FC214601AA41F2020079
:1064C0000CF01AFC0446B0B9019FFA6805F1800689
:1064D000531C413218685968344603C40833934248
:1064E0002646F7D138460BF0C9FC95F87C305F069C
:1064F00004D46FF01204204603B0F0BD01AA0021BD
:1065000042F203000CF0F8FB04460028F3D1019B93
:106510006E4EDA68D2F80100D2F8051003C61846AC
:106520000BF0ACFC214601AA42F202000CF0E4FBA5
:1065300004460028DFD1019CE368B3F8012091B242
:1065400049B1D97839B1A5F80421DA78114606F1B4
:10655000280037F08EFE20460BF090FC95F87C600A
:106560001F2316F02006A5F8203118D1022140F68D
:106570006D400CF01BFA0446002800F09A800221BE
:106580000C3030F0FCFA012303704670214632468D
:1065900040F66D400CF0B0FB04460028ABD195F8F6
:1065A0009C301E0712D501AA002142F21C000CF0FB
:1065B000A3FB044600289ED10198C368D3F80120AC
:1065C000D3F80530C5E938230BF058FC95F8D830DE
:1065D0005C060FD501AA002142F22A000CF08CFBC8
:1065E0000446002887D10198C3685B7885F822317A
:1065F0000BF044FC082142F201000CF0D7F90446EC
:10660000002856D008210C3030F0B9FA95F8D8108F
:1066100011F0400F024640F2022308BF032388070F
:106620004CBF43F02C0043F00C0095F8D9308F0696
:1066300048BF40F0400013F0090F18BF40F400605D
:10664000CE0748BF40F01000002130F046FD214643
:10665000002242F201000CF04FFB044600287FF4B8
:106660004AAF95F87C30B5F80411980624D4C9B91E
:1066700001AA41F205000CF03FFB044600287FF41C
:106680003AAFB5F80431019C4BB9E368B3F8012087
:10669000A5F804219A880E48114637F0EAFD2046F5
:1066A0000BF0ECFB082140F601400CF07FF90446AA
:1066B00080B96FF068041EE70029F3D16FF004047D
:1066C00019E700BFD401002000010020D8010020FC
:1066D0000802002008210C3030F051FA95F8D8302B
:1066E000D907024653BF4FF000512DA1D1E9000157
:1066F000294830F0F2FC2146002240F601400CF01F
:10670000FBFA044600287FF4F6AE014601AA4FF6D4
:1067100001400CF0F1FA044620BB01980BF0AEFBEF
:10672000214601AA4FF602400CF0E6FA0446C8B929
:106730000198C368B3F80130A5F8C1300BF09EFB97
:1067400095F8C1305B070DD501AA21464FF60340ED
:106750000CF0D2FA30B90198C3685B7885F8C03084
:106760000BF08CFB31F0C9F8044600287FF4C3AE6F
:106770000FF08EF8044600287FF4BDAEEB79002BB5
:106780003FF4B9AE0821054830F005FC0CF0FEF9E5
:10679000B1E600BFAFF3008010880002D4010020F2
:1067A00090880002008000202DE9F843D0E90738E6
:1067B000856903EB08042F34A5420F46164619D805
:1067C000DFF87080A3FB080117A3D3E90023FFF7CC
:1067D00097FC0346601BA0FB080123F07F4412A333
:1067E000D3E90023FFF78CFC20F07F403C60306051
:1067F000BDE8F883DFF83C900BA3D3E90023A5FBA9
:106800000901FFF77DFC20F07F4409480A2106A317
:10681000D3E90023E8FB0901FFF772FC20F07F4079
:106820003C603060BDE8F8838D49FD1A0700000028
:1068300000166BF100CA9A3B9FED0D7B124B134A79
:106840001348144910B483ED007B9FED0B7B82ED60
:10685000007B9FED0B7B104B4FF0FF34002281ED4E
:10686000007B04601A605DF8044B16F07DBB00BF2E
:10687000FFFFFFFFFF1F00000000000000000000FE
:106880001F0000000000000090020020884500204A
:10689000B885002088020020B0850020000000009C
:1068A000002800F05F812DE9F04FB54C94F86A2084
:1068B00012F001058DB040F0A78194F82500FF2368
:1068C00000F0030084F826301FF0E4FF94F86A001B
:1068D000420727D494F8292094F8353004EB82023B
:1068E00004EB8303D66AD3F8388086B1A4483146D6
:1068F00018F0E6FA33785B0605D5062113F064F943
:10690000002800F083819E48414618F0D9FA337878
:1069100013F00E0F40F0B780236A93B10C200DB036
:10692000BDE8F08F2A4604F16B01C0F3C00020F0EF
:1069300055F9FF2884F82600CCD028461FF0F0FF38
:10694000C8E715F0E3FD8146002800F0718115F0DD
:10695000E9FD8246002800F0688118F0FBFE05463C
:10696000002800F06781D0F894004FF6FF732B8663
:1069700005F11C0B002800F04F8105F1840105F1A1
:10698000880213F02DF9B5F882307E4A23F4EF63C4
:1069900023F0070343F48C7343F00103A5F882301E
:1069A0001346D2F80120C5F8AB21C5F8B12113F880
:1069B000012B9B88A5F8AF31A5F8B53195F8AA3120
:1069C00002F0010262F3000362F3410385F8AA3189
:1069D00095F8433003F03F0363F07F0385F84330BD
:1069E00095F89A3023F0070385F89A3095F84830E7
:1069F00023F00F03002785F848304FF4C023C5F873
:106A000098312846C5E91577C5F89470A5F89870AF
:106A100085F84570EF86C5F83A70EF65A5F89E7168
:106A2000A5F894711BF07CFC85F86071C5F8649141
:106A300019F05EF995F8A43160F3020385F8A431EA
:106A400019F05CF995F8A43160F3C50385F8A43119
:106A500095F8903167F3410385F89031012128467C
:106A600019F0A6FD05F1E0001BF002FAC4E9189A3E
:106A7000C4F820B0C5E905772F70ED6121F086FAE2
:106A8000002840F0C58094F824300121C3F342036C
:106A90000DF12B008DF82B3013F040FA0246002840
:106AA00062D098F80110304617F0C4FF3123364900
:106AB000A360364BB4F86870A0FB01010025C01834
:106AC00041F107012CA3D3E90023C4E90555257042
:106AD0006560E560FFF714FB206114F001FE00F132
:106AE00009083FB9357805F00F05A5F10105B5FA9C
:106AF00085F56D0994F82400236965F3000010F012
:106B0000010584F824004BD0214A0992002010602E
:106B10000225204A204F04930BAE019305920321D6
:106B2000CDE90200069443460090089607972A464E
:106B30000B9514F073FC314615F0AAFDA0B9174966
:106B400005914AF2D8330093CDE90300CDE9010065
:106B50000797089606944346012203210B9514F0EB
:106B600029FC43E017F0B2BE236A002B3FF4D6AEF7
:106B700017F068FED2E600BF8D49FD1A070000003D
:106B8000708600205567060000CA9A3B8C49FD1AA2
:106B900064860020B1EA03007DB803008DE50300A0
:106BA0002B4A2C48049303F2471306940295912133
:106BB0001360A7FB000301FB0731274B0793274B0B
:106BC00005934FF6FF730992022703930BAE1EA3A2
:106BD000D3E900230B970896FFF792FA4346CDE9D5
:106BE00000503A462846032114F018FC314615F0AF
:106BF0004FFD0028B8D194F86A3043F0010384F8BF
:106C00006A3018F087FB60B1002088E6122086E623
:106C100017F018FE032082E605F18C00C5F89400F9
:106C2000ABE601201FF018FEEEE7484615F074FCB5
:106C3000072074E6504615F07BFC484615F06CFCC6
:106C4000F6E700BFAFF300808D49FD1A0700000092
:106C500064860020002AE7847DB80300B1EA0300BF
:106C600070B590F824308AB0C3F342030D46044651
:106C700001210DF1230016468DF8233013F04EF953
:106C800071780246284617F0D5FE1F491F4AA0FB1F
:106C90000131981841F1070119A3D3E90023FFF747
:106CA0002FFA23699842054621D21B1A002201922D
:106CB000174A0293174BA21AA3FB02320221920930
:106CC00000230A4409AE099113490591CDE9033324
:106CD0000321D2B206960093184614F0FFFB31460A
:106CE00015F0D6FC38B9256100200AB070BDFBD97B
:106CF000C21A0023DBE70C200AB070BDAFF300809E
:106D00008D49FD1A0700000000CA9A3B8C49FD1A04
:106D100070860020898888887DB803000000000004
:106D200038B5194C9DF810E094F848C01CF00105E6
:106D300023D163F3420C400194F83230A1874FEA2B
:106D4000CE0E0EF0180E00F0200040EA0E0023F0E8
:106D5000380303430D4884F832309121A2FB00032D
:106D600084F848C001FB023105A3D3E90023FFF7F3
:106D7000C7F9C4E91000284638BD0C25284638BD9F
:106D80008D49FD1A0700000090450020002AE78485
:106D900010B504469DF8080022844FEA411CC0004B
:106DA000A17D00F018000CF0200C4CEA000C0C48FF
:106DB00021F038014CEA010CA3FB0002912184F878
:106DC00016C001FB032104A3D3E90023FFF798F9C0
:106DD000606210BDAFF300808D49FD1A070000000E
:106DE000002AE784000000002DE9F047044600F186
:106DF000350190F8480094F832305B4DDFF880811F
:106E0000C0F3400060F386138CB084F8323014F085
:106E1000B9FC94F83220A38F5448E46102F079025F
:106E2000002784F832209121A3FB0002C4E90577F2
:106E3000277001FB03214AA3D3E90023FFF760F980
:106E4000651B626C4A4B6760AD08A3FB053502F118
:106E50000903984298BF3A46C5F3470522644FF0AC
:106E600031028CBF19460146A26005EB4502E7607E
:106E7000216148F82210064614F032FC236A00F122
:106E800009074FEA450A002B4AD00DF12C09AA4404
:106E900008EB8A030993CDF820900694A38F33481A
:106EA0004FF00008A3FB0002CDF80C80912101FBFC
:106EB0000321236904932F4B07932F4B05934FF026
:106EC000020A27A3D3E90023CDF82CA0FFF718F975
:106ED000104619464FF47A720023FFF711F9043572
:106EE000EDB2CDE9016003213B462A46CDF8008092
:106EF000404614F093FA494615F0CAFB60B994F87D
:106F0000483043F0010384F8483017F0AFFF08B36E
:106F100000200CB0BDE8F0870C200CB0BDE8F08775
:106F20000DF12C09CDE90A3321694B460AAA032049
:106F300001F02AFA0028AAD10B99104808A3D3E936
:106F40000023A1FB0001FFF7DBF80A9B20F07F473D
:106F50001F449CE750461FF07FFCD9E7AFF3008049
:106F60008D49FD1A0700000090450020002AE784A3
:106F7000BD86F21A7DB80300E9F0030000CA9A3B0F
:106F800000870020000000002DE9F04F05468BB07F
:106F90008B46012002219946144623F07FFB0022F4
:106FA00002218246012012F06BFE3F494FF4DC7251
:106FB000284612F0F5FD461D3C4B0093F6B20195B4
:106FC0004B4632460121002014F0E2FA10F0FD0F8A
:106FD0000ED0374A3749384840F68F032EF0F3FB7E
:106FE000002383F31188BFF36F8F0323184602DF5A
:106FF000324BA4FB0348204629A3D3E90023414692
:10700000FFF77EF82E4B20F07F47A7FB03310722C6
:10701000E01A02FB071168EB01014FF47A720023BA
:10702000FFF76EF8CDE90170CDF800B00895069530
:10703000296995F9434023480491234931EA240101
:1070400028BF01460591214C07944FF6FE7103912C
:107050004B4632460121002014F0ACF910F0FD0F30
:107060000ED0134A1349144840F6A4032EF0ABFB8C
:10707000002383F31188BFF36F8F0323184602DFC9
:10708000BAF1000F02D10BB0BDE8F08F012202214E
:1070900010460BB0BDE8F04F12F0F2BDAFF3008028
:1070A0008D49FD1A07000000E0450020F5F60300B9
:1070B000443A0600083B06007034060000CA9A3BBA
:1070C0008D49FD1A81590400355B040095F60300D3
:1070D0002DE9F0418468228E4FF6FF739A428CB0FE
:1070E00045D0054620461BF00DFC2B7D012B00F002
:1070F0002281022B00F01581002B00F0F48094F81F
:107100006061002E40F010812B8A678F94F9432034
:10711000CDE90A6673B3002AC0F25A810023A4F8AD
:107120009A31AA7C238FFD1802F003030135012B4D
:10713000ADB23BD0B4F89E31002B00F005819D42EA
:1071400080F059815B1B9BB20022062BA4F89E3174
:10715000628740F2F68094F943309342C0F2508146
:10716000002326E09DF82710204618F0E5FE0CB01D
:10717000BDE8F081002AB8BF84F88561238FAA7C1E
:10718000FD1802F003030135012BADB20ED0B4F8A7
:107190009A31002BCED0AB4240F23C815B1BA4F86D
:1071A0009A31B4F89E31002BC9D102E00023A4F833
:1071B0009E3194F8482063F3820284F848202946DF
:1071C0000DF1270220461BF0E7F87430CAD0B4F85E
:1071D00098312BB1AB4240F2EC805B1BA4F89831A4
:1071E000B4F894312BB1AB4240F2DA805B1BA4F8C7
:1071F0009431658F16B9AF4200F0C9800135ADB248
:1072000094F8DD3013F0010731D1DDE90A130A46A5
:10721000002B40F0CC80002900F0BB801F461846B0
:10722000228EE4690694CDE9035605329A4D029008
:10723000CDE90017D2B201210020059514F04EF9D6
:1072400010F0FD0F93D015F04DFA84428FD0934A81
:10725000934994484FF4AE632EF0B5FA002383F3BC
:107260001188BFF36F8F0323184602DF7FE794F97D
:1072700043206FF30003002A84F8DD307FDB94F8AD
:107280008200C0F3C00100F0070020F097FCB4F8C2
:107290007A20B4F878301344628D03F23F1313441C
:1072A0000344814A81480721E3FB0021104678A36B
:1072B000D3E90023FEF724FFDDE90A1320F07F4223
:1072C00020692261904235BF171A801A00200027DA
:1072D0000A46002BA4D157EA010CA1D1002858D0AE
:1072E00019461F469CE794F89A3003F01803182BB0
:1072F0007FF405AFA18EB4F896218B1D9A42C4BFCE
:10730000931F5B1AB4F89211CCBF9BB213469942FB
:1073100000F09C80A4F89231A4F89431A4F898214C
:10732000EDE63D2684F86061314620460CB0BDE8AC
:10733000F04118F001BE0023A4F89831A4F894316C
:10734000DDE60126334634E7628E052A97BF013217
:1073500040F2E2434FF4FA7392B203FB02F2B4F844
:107360009C3142F2107101FB0323013BB3FBF2F3AA
:107370009BB2A4F89E31002B7FF4E1AE19E794F89C
:107380008300012100F0070020F01AFC7FE735465A
:1073900036E7002D43D00027114638463B463FE7ED
:1073A0000023A4F8943120461BF098F821E73846D2
:1073B00036E715F0FFF80146A0B30023A4F8983192
:1073C000238EC3801B230371006815F0C3F807E701
:1073D00094F885316BB3013B84F8853104F1E00802
:1073E00040461AF087FDB8B340461AF083FDB8B3A3
:1073F0000023638792E60821204618F09DFDB6E63B
:10740000A7B9D4F888315A0813F0010336D1C4F86B
:107410008821A5E63E21204618F08EFDA7E6002E25
:10742000B9D1A4E60123A4F89831D9E61346012680
:10743000BFE60AAA0BA92846FFF7B6F9DDE90A2339
:107440001343CBD0237884F88531C7E7B4F898117B
:1074500000297FF454AE5FE7FF2018F029FDC3E751
:107460000246D4E9210112F0D3FB0028C0D194F8E0
:1074700048301B0744BFA38E63874FE642F00042AB
:107480001E46C4F888213B4693E600BFAFF3008058
:107490008D49FD1A0700000051F60300443A06002A
:1074A000543B0600703406008C49FD1A00CA9A3B12
:1074B0002DE9F04F87B0CDE90432BDF844200378C0
:1074C0000292BDF84820BDF840A0BDF84C90878FCF
:1074D000019104460392002B00F0FC80013FBFB2F3
:1074E000A368D4F81CB1A7EB090292B2002B00925A
:1074F0000ADAE168626823F0004391422CBF8B44B2
:107500009344A360ABEB030B94F88200C0F3C0017B
:1075100000F0070020F052FB658E052D40F2E1805F
:10752000009BBAF1050F15FB03F5ADB240F2E2483E
:1075300040F2E280B4F87A20B4F87830134403F2D1
:10754000D51303447C4A7D480721E3FB00214FF01B
:107550009613A36296231046A38575A3D3E900234F
:10756000FEF7CEFD564620F07F4040F2E24308FB96
:1075700005F103FB06F6B1FBF6F81FFA88F520616A
:1075800006FB05F08142A84680F09680401A6B49C0
:1075900067A3D3E90023A0FB0101FEF7B1FD20F0B2
:1075A0007F408344E38EB4F824211344994494F833
:1075B0004330A9EB0709C844DB09A4F8368000F082
:1075C000A780E26C0099636D02FB1133636520F0C4
:1075D0002FFD074694F88401C0F3420020F02AFDF5
:1075E000074406FB07F7564B07F5742707F23F27BA
:1075F000A3FB0737BF0C636DE76405FB07F0720858
:107600000344963A934228BF1346C4E91423059BCA
:107610004A4D40F2E24808FB03F3E3650023A0FB78
:107620000501C4F88C3142A3D3E90023FEF768FDBD
:10763000049BABEB000B4348A0FB0330800A08FB24
:1076400000F0A0FB05013AA3D3E90023FEF758FDA3
:10765000F71B20F07F45029BA386039BA4F89C3177
:1076600031462046A4F832A01AF0D2FE364BA18E45
:107670003344881DB3FBF6F39AB29042A4F89621E6
:1076800004D2C1F57F41FA310A4492B2019BA4F8B9
:10769000922113B10023A4F89E315B463A46294655
:1076A0002046FFF771FC94F8903143F0010384F811
:1076B000903107B0BDE8F08F091A20481CA3D3E928
:1076C0000023A1FB0001FEF71BFD20F07F40ABEB88
:1076D000000B67E7C38E1F44B0F824311F44BFB2CC
:1076E000FEE6009B013515FB03F5BAF1050FADB2BF
:1076F0004FF4FA783FF61EAF4FF096130AF10106E9
:10770000A3629623A385B6B20A204FF4FA732EE73C
:10771000049B0A48A3FB000105A3D3E90023FEF75D
:10772000EFFC20F07F453746013594E7AFF300804A
:107730008D49FD1A070000008C49FD1A00CA9A3BCA
:1077400083DE1B435917B7D17FC3C9010000000076
:107750002DE9F04F04460B68077F1668D3F800A0A8
:10776000638CD0F81E0095B015464A7CADF84C30BD
:10777000FF2AC7F3801388460D9212908DF83F3090
:1077800076D199461A4612AB93E803000DF1400BEF
:107790001090ADF84410F8090AF1710127680A91B8
:1077A0005B460C900B9718F0AFFA0A99002847D166
:1077B00096F8AA310C9A0A9069F3410362F3000328
:1077C00086F8AA311098BBF80430C6F8B101A6F8C3
:1077D000B531DAF87130C6F8AB318B88A6F8AF3125
:1077E000E38D94F83010A9722B81D4F82A306B60A5
:1077F000D4F83A30C5F8223005F1220094F83E3032
:107800000371052112F08AFB95F8273000F03F0044
:1078100060F3050385F8273094F83F30C3F3040183
:1078200085F82810A18EE982012803F01F0389B290
:1078300006D91B3303F01F030B2B01D80A9A59BB3F
:107840000022CAF8142095F82C300B9862F300033C
:1078500085F82C30E56801262146267114F06EFE6D
:1078600028682E71294614F075FE15B0BDE8F08F1A
:107870000DF1400B10460DF13F015A461EF05CFD24
:107880009DF83F90277F09F102095FFA89F98DF889
:107890003F9009F001027EE7D8F800305A60E38E8D
:1078A0002B83EB8A40F2E24909FB03F71146638E12
:1078B0000A9330461AF0C0FD94F83F3096F88421C0
:1078C0005B0963F3430286F8842120F0B1FB0C903E
:1078D00096F88401C0F3420020F0ACFB0C9BC04A38
:1078E000034407FB03F303F5742303F23F23A2FBD6
:1078F00003239B0C2B637B08963B6B6394F831301E
:1079000009FB03F36B64238FA6F89C31394630469C
:107910001AF07EFDB34BB44AC6F8A0213B44B3FB3A
:10792000F7F39AB2A6F89621298B881D824204DDCE
:10793000C1F57F41FA310A4492B2A6F892216B68F0
:10794000C6F88831234613F81C2FC2F34019DA0712
:1079500000F103814FF48073A3839AF826001FF08F
:1079600055FA04F12B03002800F0F380626AC4F892
:107970002B20228D9A800D9BFF2B00F02681BDF8D5
:107980004C301298A4F82930C4F82500BBF8043014
:10799000A4F8233010989DF83F30C4F81F00A37757
:1079A000EB8A63862B8BA386B6F89C31E38696F828
:1079B0008431C3F3420384F83830304617F0D6FEE2
:1079C000A882E08021460B98D8F8044014F0B6FD58
:1079D000AB8AE3801C23D4F800B02371B9F1000F07
:1079E00040F0D28084F81C902146584614F0B2FD35
:1079F00095F86700B5F85C90B5F85E40012100F09D
:107A0000070020F0DDF84C4404F2D514DFF8E491CF
:107A10000444834675484FF096130721C5E90333A4
:107A2000E4FB090131230024B36074606AA3D3E945
:107A30000023F460FEF764FB20F07F4030612D6B83
:107A40000A9A7D1BD8F80C7040F2E24303FB0277E0
:107A500002212246012012F013F9504617F0ECF9EA
:107A600007F2B3470246A7EB0B07A7FB090117462E
:107A700059A3D3E90023FEF743FBCDF804A0D8F8BF
:107A800008305B49009120F07F49BA1C3A3BD2B2E2
:107A90004B440121204613F07BFD012800F081803A
:107AA0009AF82430DB0767D4304617F05FFE514B5D
:107AB000A5FB035A044648A3D3E9002328465146B0
:107AC000FEF71EFBD8F808304B4A0792A3F13A089C
:107AD0004A4B069620F07F47A7FB0331E81A484B34
:107AE00005934FF4F573089333694FF0000BCDE91C
:107AF00003B34FF0070303FB07116AEB01014FF4D7
:107B00007A720023FEF7FCFA0534E4B2CDE9017085
:107B1000CDF80090434622460121584613F04AFC16
:107B200010F0FD0F0DD0374A3749384840F2EB13BB
:107B30002DF049FE8BF31188BFF36F8F0323184696
:107B400002DF01220221104612F09AF815B0BDE8BA
:107B5000F08FC4F82B0098800DE72A4A2C492B4857
:107B6000FD232DF030FE002383F31188BFF36F8FC8
:107B70000323184602DFEDE6002301220093184696
:107B8000114613F0C3FC8FE795F8273043F040030C
:107B900085F82730281D1EF0C7F94FF00109288508
:107BA00020E714F09FFD82453FF47AAF154A19494A
:107BB000164840F292232DF006FE84F31188BFF39D
:107BC0006F8F0323184602DF6AE70022C4F82520DE
:107BD000A4F82920DAE600BF8D49FD1A070000004D
:107BE00083DE1B437FC3C901404B4C008C49FD1A07
:107BF0004159040000CA9A3B0D5904008D49FD1AF1
:107C0000815904004C400600083B06007034060011
:107C10008C370600A84006002DE9F04F8DB09B463A
:107C2000BDF860300693CDE90401BDF868309DF8D9
:107C30005C90BDF864A003930020164617F078FB13
:107C4000002800F06C8109F001070446384613F063
:107C500089FD0290002F71D1169B02995A46384631
:107C600018F052F8002840F06B81236A089304F161
:107C70001C020792002B68D0D4F82080D8F800505E
:107C80000BF0010A98F86600C0F3C00100F007008D
:107C90001FF094FFB8F85E30B8F85C201A44B8F8CA
:107CA0000E3000F23F1003441344CF48CF4A07215F
:107CB000E3FB00211046CAA3D3E90023FEF720FA14
:107CC00020F07F40286130461EF006FE94F83330E5
:107CD0006FF3410384F83330FF2384F83430002EEF
:107CE00000F02181A9F10203012B40F22D8194F8CB
:107CF0004810079869F3420184F8481094F833104B
:107D00006AF30001DDE9042384F833101699096849
:107D10006162169989882185039921860096002140
:107D2000FFF736F8606420F031F9002840F0178141
:107D30002046FFF759F80DB0BDE8F08F062111F08D
:107D400043FF002888D11220F5E714F0DFFB0990EB
:107D5000002800F07A8117F0FDFC0546002800F0AD
:107D60007181203012F0EEF805F11C08002840F077
:107D70002381032105F124001FF0D2FD069BD5F8D5
:107D800094006B864FF6FF73A5F834A02B8600286D
:107D900000F0218105F1880205F1840111F020FF36
:107DA000B5F8823023F4EF6323F0070343F48C73B8
:107DB00043F00103A5F8823095F89A304FF0000A9D
:107DC00023F0070385F89A300121C5F894A0A5F89F
:107DD00098A0284618F0ECFBA5F836A0C5F83AA004
:107DE00005F13E001EF04AF895F8433060F30503B4
:107DF000012185F843300DF12F001FF091FD039B09
:107E00009DF82F20A5F89C31794B85F845A0A3FB60
:107E10000213DB0803EB4303A2EB830295F8433024
:107E2000A98EA5F89EA103F03F0385F8433095F88D
:107E30004830A5F894A1053223F0070385F84420C3
:107E4000069A85F8483040F2E24A6A4B0AFB02FA89
:107E50004FF4C0225344C5F89821881DB3FBFAF3B0
:107E60009AB28242A5F8962102DD063A521A92B2DF
:107E7000A5F8922128461AF053FA514628461AF0DE
:107E8000C7FA0021099B85F86011C5F8643117F025
:107E90002FFF95F8A43160F3020385F8A43117F0A1
:107EA0002DFF95F8A43160F3C50385F8A43195F84A
:107EB0009031002161F3410385F8903105F1E00034
:107EC00019F0D6FF95F8AA31169A0BF0010A6AF359
:107ED000410385F8AA314FF09613C5E90A333123DF
:107EE000AB600021169B6960E9601B68C5F8B13181
:107EF00095F8AA319288A5F8B52169F30003029A92
:107F000085F8AA311368C5F8AB319388A5F8AF316D
:107F1000C4F82080C5E905112970ED61B2E60C2096
:107F20000DB0BDE8F08F1FF031F900283FF4DAAE54
:107F30001699584632461EF051FE84F83400D1E6B8
:107F40000B200DB0BDE8F08F00201EF0E9FC94F886
:107F5000333043F00203B94684F83330C7E6256A6C
:107F6000AB6F73B1244A2549254840F229432DF0CF
:107F70002AFC002383F31188BFF36F8F0323184675
:107F800002DF05F16C0105F1680011F02DFE0646D7
:107F9000002839D02F68AE67D7F86451002D42D041
:107FA000284614F0B9FA384617F0DAFB002303200C
:107FB00023620DB0BDE8F08F0F4A12491048C1236B
:107FC0002DF001FC089B83F31188BFF36F8F03230F
:107FD000184602DFCDE605F18C00C5F89400D9E61D
:107FE0008D49FD1A0700000000CA9A3B8C49FD1A12
:107FF000ABAAAAAA7FC3C901D8400600203906004F
:108000007034060024350600114A1249124840F225
:108010002B432DF0D8FB86F31188BFF36F8F03231A
:10802000184602DFB6E70A4A0A490B4840F23243D3
:108030002DF0C9FB85F31188BFF36F8F032318461A
:1080400002DFADE7099814F067FA072073E600BF76
:10805000D8400600943A0600703406000000000084
:108060002DE9F04F04468DB090F81C80238D406AB6
:10807000ADF82C30E307C8F3C0170E461546C8F319
:1080800040180A9000F110810023A383B37C707C18
:1080900013F001031CBFD4F81E30C4F82B3004F1D8
:1080A0002B0214BF638CC4F82B30FF28938004F19B
:1080B000250904F11F0200F0EA8004F11E011EF000
:1080C0003BF9A37FBDF82C200A98C4F825000233A1
:1080D000A377A9F804203368D3F80090EB8A63866D
:1080E0002B8BA386B9F83030E3861FF09FFF84F80E
:1080F00038002F68384617F039FB0021A882E0804D
:1081000038461AF099F9D6F804A02068214614F0F0
:1081100015FAAB8AAAF806301C23DAF800408AF870
:108120000430B8F1000F40F0CF808AF81C8051462F
:10813000204614F00FFABB687A6895F86600B5F827
:108140001680F5686A4C934238BF1346C0F3C001ED
:1081500003F1090A00F0070040F2E24303FB08F8CC
:108160001FF02CFD002202212D1A012011F088FDA4
:10817000484617F0B3F8A5FB04455BA3D3E90023F9
:10818000834629462046FDF7BBFFCDF80490B3682F
:108190005849009120F07F490BF10402A3EB0A0338
:1081A000D2B24B440121002013F0F2F910F0FD0F80
:1081B0000ED0514A5149524840F249332DF003FB49
:1081C000002383F31188BFF36F8F0323184602DF68
:1081D0004FF0000B5B4603220121CDF800B058465A
:1081E00013F094F9384617F0C1FAB36806464048D0
:1081F000A3EB0A0AA8FB00013BA3D3E90023FDF788
:108200007FFF19463F4B08933F4B069340F279336B
:10821000079709933B698046CDE904B310460023D4
:108220004FF47A72FDF76CFF384B0722A9FB03313C
:10823000CDE9028002FB0911E01A65EB01014FF460
:108240007A720023FDF75CFF0536F6B2CDE90090A7
:10825000534632460121584613F0C8F810F0FD0F7E
:108260000DD0254A2549264840F27A332DF0ABFA45
:108270008BF31188BFF36F8F0323184602DF0122AF
:10828000022110460DB0BDE8F04F11F0F9BC0023FB
:10829000BDF82C100A98C4F82530A9F80430A77747
:1082A000C4F81F00918016E7134A194914484FF487
:1082B00031732DF088FA002383F31188BFF36F8F99
:1082C0000323184602DFDFE695F8273043F040032A
:1082D00085F82730281D1DF027FE4FF0010828855E
:1082E00023E700BFAFF300808D49FD1A07000000AF
:1082F00000CA9A3BFD5A0400D8400600083B06001D
:1083000070340600015B0400355B04008D49FD1AE2
:108310008C370600000000000538C3B2052B0CD8CE
:1083200070B580B20D4617F029FA044618B190F9DD
:108330004330002B03DA002070BD0020704790F816
:1083400082000F4EC0F3C00100F007001FF036FCA2
:108350000C4A00F2B5500721E0FB0621104606A3A7
:10836000D3E90023FDF7CCFE20F07F4028602046B3
:1083700070BD00BFAFF300808D49FD1A07000000FB
:1083800000CA9A3B8C49FD1A2DE9F04F93B0FF27A4
:108390000B930B1D0A930023CDE90E3305461646B9
:1083A0008DF837709B463C4698469A46994610ABE6
:1083B0000693594B0593594B03930FAB01930EABA7
:1083C00000200093022310930490029033460DF195
:1083D0003702294613F020F9022812D0109BB3B9B6
:1083E000FF2C25D03368434522D0002F42D0013FD7
:1083F000FF24FFB28DF83740D9E72946002013F05B
:1084000057F9109B022BF8D0109B002BE8D0444A60
:10841000444945484FF4EE732DF0D5F9002383F31A
:108420001188BFF36F8F0323184602DFFF2CD9D1C9
:108430009DF83700FF282CD011A9FFF76DFF002809
:10844000B5D0FF2CDDF83880119B0AD04946404654
:10845000099313F047F90A9B03EB0A029042099B28
:1084600019D8C1469DF83740D6F80080DDF83CB0F9
:108470009A469CE72D492A4A2B484FF4F2732DF077
:10848000A2F987F31188BFF36F8F0323184602DF29
:10849000ADE7FF2C34D026480721AAFB000301FBDF
:1084A0000A311BA3D3E90023FDF72AFE044600B1DD
:1084B0003E34204AABF57423A3F51073934216D8CB
:1084C0001B480721A9FB000301FB093110A3D3E9D5
:1084D0000023FDF715FE184BA3FB0B2304EB93447D
:1084E0000B9B044400201C6013B0BDE8F08F0BF11F
:1084F000E87B0BF5D43B09F1FF390BF5A57BDFE7F2
:108500006FF0090013B0BDE8F08F00BFAFF300803B
:1085100000CA9A3B000000001D5E0400215E0400BA
:1085200024410600684106007034060070410600D0
:108530008D49FD1ABFBDF07F83DE1B4300000000A4
:108540002DE9F043C668476873683D491A68D0F85A
:108550000090A7F57423A3F510738B4283B0804677
:1085600007D907F1E87707F5D43709F1FF3907F59F
:10857000A57773681169DD8ACDF8049006F11003C0
:1085800001AA0220FFF700FF00284ED10199A1EBBC
:1085900009031B0237D40846494613F0A3F80346E3
:1085A00028480721A3FB000201FB032122A3D3E9F2
:1085B0000023FDF7A5FD34690444002C346109DB78
:1085C00040F2E24305FB03F3A3422FD2E41AA34295
:1085D000FCD33461D8F800301A48A3EB0903A3FB9D
:1085E0000002072101FB032113A3D3E90023FDF7B8
:1085F00087FD154BA3FB0737A0EB97402044306164
:1086000003B0BDE8F083484613F06CF803460D480C
:108610000721A3FB000201FB032107A3D3E90023E9
:10862000FDF76EFD3469241AC7E73469002CD1D1F7
:1086300003B0BDE8F08300BF00CA9A3B0000000011
:10864000BFBDF07F8D49FD1A83DE1B430000000093
:1086500010B5334C3349002304F1FF3C14F83320A8
:10866000072A02EB820E05D811F83E206FF345125F
:1086700001F83E201CF833206FF300020CF8332081
:108680000133082BEAD1284A284C002313700A78BA
:1086900063F300020A7091F8282063F3000281F866
:1086A000282091F8502063F3000281F8502091F8BF
:1086B000782063F3000281F8782091F8A02063F31A
:1086C000000281F8A02091F8C82063F3000281F82D
:1086D000C82091F8F02063F3000281F8F02091F8AF
:1086E000182163F3000281F81821114A9FED0A7BDB
:1086F0001370104B83ED007B0F4B236028B1BDE856
:1087000010400E490E4835F093BEBDE810400C48AD
:1087100035F09CBEAFF30080FFFFFFFFFFFFFFFFC0
:10872000D193002090920020CDAE0020A091002097
:10873000CCAE002060500020A0BB0D00156B0400E3
:1087400030500020000000002DE9F04F8FB00DF1F7
:1087500037010446DFF8E0A0DFF8E0800DF13600D5
:1087600013F06EFF9DF836309DF837B00B9312F082
:10877000B7FFDAF80060A6FB085629A3D3E9002367
:108780000027814631462846FDF7BAFCCDE9077738
:10879000069420F07F44DAF80400234B0593A0FBF5
:1087A00008011FA3D3E90023FDF7AAFC1F4B20F00B
:1087B0007F40A4FB0331072202FB0411CDE90370C3
:1087C000E81A66EB01014FF47A720023FDF798FC7A
:1087D0000097CDE901404B460B985A46032112F011
:1087E000E9FD10F0FD0404D06FF08B000FB0BDE880
:1087F000F08F0F480F4A002328F0ECFD20B9DAF87B
:108800000C000FB0BDE8F08F9DF837209DF83600C2
:1088100000942346032112F079FE6FF07300E5E720
:108820008D49FD1A07000000917204008D49FD1A60
:1088300044940020447B0B005C94002000CA9A3BC7
:1088400038B50F4D044612F04BFFA96812F04AFFED
:10885000696803460B48B3FBF4F4A1FB00011C4418
:1088600005A3D3E90023FDF74BFC20F07F408442B1
:1088700094BF0020012038BD8D49FD1A070000007B
:108880005C94002000CA9A3BF0B5C468636883B06A
:108890000546002B64D121F039FA002021F05CFA62
:1088A0000021084621F04AFA00222521082021F063
:1088B00087FA474B019301A821F06EFA454940F22F
:1088C0005B6021F025FB237AC3F3420262F30613B7
:1088D000204623721FF0CAFD1EF058FC58BB637A75
:1088E0009B071FD127682E6838461FF003F90644FE
:1088F0006A6806F10901012021F064FC21F052FDB3
:10890000204616F0A5FA811C3246C9B238461FF03F
:10891000FFF8054678BB20461FF086F888B900208E
:1089200003B0F0BD01201DF08BFF4178821C007860
:1089300021F0E8FBD6E7607A10F0030018BF0120B1
:10894000F1E7254A2549264840F229432CF03BFF10
:1089500085F31188BFF36F8F0323184602DFDEE72C
:1089600093F82C309A0796D01E48214621F08CF9B6
:1089700021F078FAD3E7184A1B49194840F211430D
:108980002CF021FF194B0721A5FB030301FB053147
:108990000DA3D3E90023FDF7B3FB154902461548A3
:1089A0002CF011FF002585F31188BFF36F8F03238F
:1089B000184602DF1048214621F066F921F052FAEC
:1089C0006FF08B00ACE700BF00CA9A3B00000000CC
:1089D000D6BE898E555555004445060044360600DE
:1089E00070340600A17C0400483506008D49FD1A4C
:1089F000F4450600C8450600418004000000000060
:108A00002DE9F041C46894F91630002B8CB0C0F207
:108A10000581636805460E46002B40F0F480A37D77
:108A20006FF30003A37521F071F9002021F094F990
:108A30000021084621F082F900222521082021F09A
:108A4000BFF9012013F002FF0746002800F0CC8098
:108A500007F11C0021F0DEF98B4B0B930BA821F0E2
:108A60009BF98A4940F25B6021F052FAA07DC0F385
:108A7000410025301FF05EF88548214621F004F9B9
:108A8000A37D9B0603D46368002B00F0AA80962088
:108A900021F08CFB00231A461946184621F09EFA55
:108AA0001EF074FB002838D1A37D13F0180F5BD1A2
:108AB000D4F800802F6840461FF01CF807446A680D
:108AC00007F10901002021F07DFB21F06BFC21F072
:108AD000F5FA204616F010FC011DC9B240463A4690
:108AE0001FF016F88046002840F09F8016B9636A90
:108AF000002B52D1636843B1664B01220221002052
:108B00009D6011F0F3F8002837D120461EF08CFF4D
:108B1000D0B900200CB0BDE8F081A07DC0F3C0004A
:108B20001DF08EFE07460DF12B001EF097F97978A7
:108B30008046BA1C387821F0E5FA9DF82B00002217
:108B4000414621F0FDFCB3E7534A5449544840F2F2
:108B50000B232CF038FE002383F31188BFF36F8FB3
:108B60000323184602DFD4E701201DF069FE417897
:108B7000821C007821F0C6FA9AE7474A49494848DA
:108B800040F206232CF01FFE002383F31188BFF36D
:108B90006F8F0323184602DFB7E7434A0792434A21
:108BA000059240F2F31200930892CDE90366CDE9F5
:108BB000016606943B460322314612F0FBFB10F09F
:108BC000FD0F97D0344A3A4935484FF4FA732CF0E8
:108BD000FAFD86F31188BFF36F8F0323184602DF77
:108BE00088E721F05BFA5BE72B4A32492C484FF4C7
:108BF000C5732CF0E8FD87F31188BFF36F8F032353
:108C0000184602DF24E7636893F82C30D90705D4AF
:108C1000636893F82C309A077FF501AF2648214608
:108C200021F032F821F01EF973E71B4A23491C4852
:108C300040F2E5132CF0C7FD214B0721A8FB0303ED
:108C400001FB08310EA3D3E90023FDF759FA1D49B2
:108C500002461D482CF0B7FD002585F31188BFF3AF
:108C60006F8F0323184602DF1848214621F00CF8C5
:108C700021F0F8F86FF08B004CE700BFAFF30080F5
:108C800000CA9A3B00000000D6BE898E555555009B
:108C9000718D0200100E00200046060044360600CA
:108CA000703406005C350600DD8B0400858C040002
:108CB0006C38060090450600A17C0400483506008B
:108CC0008D49FD1A4C460600C8450600B58A0400C9
:108CD00038B504461FF09CFEA37DA27DC3F341037B
:108CE000013303F00303032B08BF002363F34202A5
:108CF00014BF03F125002520A2751EF01BFF636839
:108D00000BB123694BB912F0EBFCC11C002021F020
:108D1000CDFABDE8384021F045BB21F0F5FA054613
:108D200012F0DEFCC11C002021F0C0FA21F03AFB59
:108D300021F0EAFA294612F0D5FC0B4A0346072136
:108D4000A0FB020201FB032105A3D3E90023FDF7E9
:108D5000D7F923691B1A236138BD00BFAFF3008028
:108D600000CA9A3B000000008D49FD1A0000000077
:108D70002DE9F0478AB0044621F0B4F8C0B250B9EA
:108D80001EF032FFC648214620F07EFF0AB0BDE843
:108D9000F04721F067B821F0C7F8054621F0E6F961
:108DA000074621F0EDF9814621F024FC064621F02A
:108DB00003FC824621F09CF9EDB2804621F07CF95B
:108DC0001EF012FF002DDDD0012013F03FFD0546FF
:108DD000002800F0528117F0FF07F6B240F0E8805B
:108DE000002E40F0DF804FF0FF093A464B463146F7
:108DF000204620F043F80028C4D02A7F6168002371
:108E00008DF823305FFA88F702F00F03002900F095
:108E1000F180616891F82C10880700F1EB80072B36
:108E2000B0D0A17D090740F14781002B40F0C980F7
:108E30006B7F063B1F2BA5D8042013F007FD0028ED
:108E4000A0D021F0B7FA636A074643B9238C40F2F9
:108E5000712202FB03F3B0FBF3F203FB120723685A
:108E60001A69904B0721A2FB030301FB02318AA37D
:108E7000D3E90023FDF744F96FF4427C00EB0C03C7
:108E80001F3B62EB0202BB4272F10002FFF47AAFB9
:108E900021F004F9484663681DF0C6FFE37D990799
:108EA000804640F1E481002800F0E18182460127FC
:108EB00021F048F8CDE9027A09AB049305F11E03CD
:108EC00001932B7FC3F380130146074600930022D2
:108ED000012320461FF0ECFF384620F0A1FF20F0D0
:108EE000EDFF002840F0C9816F48214620F0CCFEFC
:108EF000626892F82C3043F0010382F82C30A37D95
:108F000043F08003A37513F0BBFC172202714FF6E8
:108F1000FF72C28095F81CC082463B46CCF3401CD1
:108F200000F11C0207F1200E1D6858689968DF687F
:108F3000D7601033734515605060916002F11002E4
:108F4000F2D11B6813609AF81C30CAF808406CF321
:108F500045138AF81C3021F0D7F9002ECAF810000A
:108F6000099BCAF8143008BF4FF0FF098AF819901E
:108F7000E37D13F0020303D0B8F1000318BF01230F
:108F80009AF81A2063F300028AF81A2013F078FC8A
:108F9000CAF80C00DAF8000051460AB0BDE8F04704
:108FA00013F098BC5FFA8AF01DF0D4FF81461CE7ED
:108FB000A07D5FFA89F1C0F3C0001DF059FF814622
:108FC00013E7012B40F088806A7F0C2A7FF4DAAE29
:108FD0002A7FCDF80090194600230193D20905F1AC
:108FE000240320461FF098FE00287FF425AF2B7F36
:108FF00003F00F03002B6FD16B7F052B7FF6C2AE02
:10900000252B3FF6BFAEA27D02F02102202A09D116
:109010006268002A00F0C080052B7FF6B3AE252BD6
:109020003FF6B0AE63682BB12B7F03F00F03072B25
:109030007FF4A8AE03209DF8238013F007FC0546BB
:1090400000283FF49FAE13F01BFC4FF6FF73EB803C
:1090500005232B71002F3BD17F20AB7E2876002E7D
:1090600008BF4FF0FF0968F34103286885F819909D
:10907000AB76294613F02EFC84E60C4A0C490D48C9
:1090800040F2C7232CF09FFB85F31188BFF36F8F4D
:109090000323184602DF9EE600CA9A3B0000000048
:1090A000CD8A04008D49FD1ACD8C040000460600CF
:1090B0009045060070340600B9F1FF0F8DF824903A
:1090C000C2F380184BD0227E91453FF4AEAE91E7BB
:1090D00020F0FEFFC0B2C0E7062B8DD04521D9405D
:1090E00011F0010139D1012B10D16B7F0C2B7FF4D2
:1090F00049AE2A7FCDF800900DF123030193D209E8
:1091000005F1240320461FF007FE08BB2B7F03F068
:109110000F03042B7FF436AE6B7F063B1F2B3FF60D
:1091200031AEA37DDB077FF52DAE20F00BFF2B7F4B
:109130000278C3F38013B3EBD21F7FF423AE083061
:10914000062205F11E0135F07EFD00287FF41AAEDF
:109150006B7F002B7FF466AF14E66B7F5CE705F155
:109160001E0A09AA514640461DF0B2FF00283FF4EE
:109170003EAFE37D03F0010343457FF438AF514632
:10918000062204F1080035F05EFD00287FF42FAFC1
:109190002B7F03F00F0348E69620079221F006F894
:1091A000079A104620F0D2FE032013F04FFB8046B2
:1091B00000283FF4E7AD13F063FB4FF6FF73A8F808
:1091C0000630052388F80430002F66D17F23002E57
:1091D00088F8183014BF4B46FF2388F8193098F8E8
:1091E0001A30D8F800006FF3410388F81A3041466E
:1091F00013F070FB20F0A6FE06460322337862F3DC
:10920000030333702B7F3278C3F3801363F3C712E9
:109210000C233270484673701DF006FEE27D920703
:109220003FD500283DD03178324641F0400102F868
:10923000021B0168C6F8021083889380D5F81E309F
:10924000B3606B8CB381304620F0EAFD20F036FE2F
:10925000002837D121F0A6F8A37D224843F001036E
:109260002146A3750AB0BDE8F04720F00DBDA77DEB
:1092700004F1190AC7F380171AE61B4A1B491C4858
:1092800040F2AF432CF09FFA002383F31188BFF321
:109290006F8F0323184602DF26E620F019FFC3B2C2
:1092A00095E7A37D3278C3F3801363F386123346C8
:1092B00003F8022BD4F81920C6F80220B4F81D20B8
:1092C0009A80BBE7084A0949094840F233532CF019
:1092D0007AFA002383F31188BFF36F8F03231846B4
:1092E00002DFB7E7E18A0400004606009845060061
:1092F00070340600000000002DE9F041C468A28A25
:109300004FF6FF739A4282B000F0DF8005461FF0EF
:10931000E3FE2B89628B208CA3831A4492B2104403
:1093200094F82730E28380B2411C21845E064FF01E
:109330000001618304F1220100F1A18003F03F00EC
:109340000B4694F82810009004F129001CF0A4FDAD
:109350000646D4E90C31A28B02FB0333A26B134403
:10936000E26B8B4294BFD21852188A4228BF0A4639
:10937000E263616C226C94F867301144616494F884
:109380007E2094F82C10C3F3020363F3061112F04D
:1093900004024FF0000384F82C10A363236478D0F8
:1093A00020F0B4FC002020F0D7FC201D20F0F4FCBD
:1093B0002389A17A40F25B6043EA014120F0A8FDD5
:1093C00030461EF0B7FB2146594820F05DFCA089CD
:1093D00020F0ECFE94F8662094F86700C2F3C00316
:1093E000002102F0070200F0070020F0F7FD204600
:1093F0001FF032FF27682E6838461EF07BFB0644BC
:109400006A6806F10901002020F0DCFE804620F0A9
:109410009DFF002020F0B4FFE36B94F8670003F198
:109420002F02636C00F00700012103EB420520F0DE
:1094300005FD4544054494F8670000F00700022844
:1094400025D004280CBF4FF4BC73282301211D44F0
:1094500020F0F6FC284420F06BFFA18A053132464B
:10946000C9B238461EF054FB0546002834D12046C8
:109470001EF0DAFAD0B9002002B0BDE8F0810A4649
:1094800003F03F03218D1CF053FD064661E71823CE
:10949000DCE7D4E91A0110F0BBFB002880D194F876
:1094A0007E3043F0040384F87E3079E7214A224974
:1094B00022484FF4B0732CF086F985F31188BFF37E
:1094C0006F8F0323184602DFD5E71D48214620F0A1
:1094D000DBFB20F0C7FCCEE7164A1A4917484FF4C9
:1094E000AB732CF070F9184B0721A5FB030301FBAC
:1094F00005310DA3D3E90023FCF702FE1349024610
:1095000013482CF060F9002585F31188BFF36F8FA5
:109510000323184602DF0F48214620F0B5FB20F058
:10952000A1FC6FF08B00A7E700CA9A3B0000000087
:10953000D1940400E046060044360600703406006C
:10954000A17C0400483506008D49FD1A3447060009
:10955000C84506007D7C0400F0B5C468A28A4FF6B9
:10956000FF739A4285B000F08F8005461FF0B4FD6E
:109570002B89628B208CA3831A4492B2104494F8F6
:109580002730E28380B2411C21845E064FF0000147
:10959000618304F1220160D403F03F000B4694F88C
:1095A0002810009004F129001CF076FC06462046A5
:1095B00003A91FF02FFF039B94F87E101A7861F324
:1095C000C3021A70039A94F87E301178C3F34003F3
:1095D00063F38201117020F099FB002020F0BCFBA6
:1095E000201D20F0D9FB2389A17A40F25B6043EA79
:1095F000014120F08DFC30461EF09CFA0399204674
:109600001FF0DCFE21463A4820F03EFBE08920F0C6
:10961000CDFD94F8670000F0070020F097FC276864
:109620002E6838461EF066FA06446A6806F109019B
:10963000012020F0C7FD20F0B5FEA18A0531324699
:10964000C9B238461EF064FA054620BB20461EF01B
:10965000EBF950B9002005B0F0BD0A4603F03F0316
:10966000218D1CF065FC0646A1E7224A22492348C9
:109670004FF482732CF0A7F885F31188BFF36F8F36
:109680000323184602DFE5E71D48214620F0FCFAD7
:1096900020F0E8FBDEE7174A1A491848FA232CF0B5
:1096A00092F8194B0721A5FB030301FB05310EA31B
:1096B000D3E90023FCF724FD1449024614482CF09A
:1096C00082F8002585F31188BFF36F8F03231846B6
:1096D00002DF1048214620F0D7FA20F0C3FB6FF0DC
:1096E0008B00B8E7AFF3008000CA9A3B000000008F
:1096F000F19204004047060044360600703406002C
:10970000A17C0400483506008D49FD1A90470600EB
:10971000C84506007D7C040010B5094B00211A469F
:109720005C68844205D11C781CB1502303FB0120E6
:1097300010BD01310A2903F15003F1D10020F7E7F0
:109740004818002082B02DE9F04186B00CA940688D
:1097500081E80C002AF054FA0D9D47682846FFF76F
:10976000DBFF044680B9234A0346502000FB03F187
:109770008C18565C002E34D19DF8403023720123A2
:109780006560E7605352A370A278012363700EAD49
:10979000D2B1049395E80F008DE80F0007F1080699
:1097A0000CAB0CCB4FF0000830462AF07FFACDF816
:1097B000108095E80F008DE80F000CAB0CCB304605
:1097C0002AF074FA84F802800123049395E80F00CC
:1097D0008DE80F000CAB0CCB07F118002AF066FAED
:1097E00002E001330A2BC1D1002006B0BDE8F041F0
:1097F00002B07047481800202DE9F0410B4E337835
:109800007BB100240A4DDFF82C80274628464146CC
:10981000013434F00DFE0A2C05F8107C05F15005DA
:10982000F4D100203070BDE8F08100BFC60F0020E9
:1098300058180020B53B05002DE9F0438DB00446D3
:1098400000F028FE05462046002D5ED000F022FEE6
:10985000054600283BD05D4C002627466FF04209A4
:109860002378002B46D0D4F804806968884541D01D
:10987000E2681346A9EB020253F843CBD0188445A3
:1098800029DC5023734306AD002607EB0309182299
:1098900031462846FE5435F04CF8CDF81C802AF0AD
:1098A00002F999F80130CDE908016BB1D9F80C70D3
:1098B00004960CAB13E90F008DE80F0007F11800B8
:1098C00095E80C002AF0F2F920462AF04DF9002024
:1098D0000DB0BDE8F08313F8010F8142CED12B7A91
:1098E00073B104F1100034F0B1FD773002D10123DF
:1098F00084F8493001360A2E04F15004B0D1E6E76D
:10990000286921462AF0DDF8F4E702F063FF002819
:10991000DDD0204602F05EFF0028D8D04378002B2F
:10992000D5D02A4B98461A78002A48D0D9680278B0
:109930008E6BD64016F0010641D150236B4308EBE5
:10994000030906AF18223146384608F8036034F0A0
:10995000F0FFD9F8043007932AF0A5F899F8013000
:10996000CDE9080108AC63B1D9F80CC0049694E8BD
:109970000F008DE80F000CF1180097E80C002AF09A
:1099800095F9502303FB05850123EE68049394E8C1
:109990000F008DE80F0006F1280097E80C002AF070
:1099A00085F90023ED68049394E80F008DE80F001B
:1099B00005F1280097E80C002AF078F987E70135CF
:1099C0000A2D03F15003AED181E700BF48180020F3
:1099D000014831F07CBD00BF9CFA0500012B07B5A2
:1099E0000FD112780848012A14BF002257228DF89F
:1099F000072000210DF1070231F0DCFC03B05DF817
:109A000004FB6FF08500F9E79CFA0500012B13B504
:109A1000144611D10A480DF10702002131F0EFFC84
:109A2000002807DB9DF80730A3F15702534253414A
:109A30002370002002B010BD6FF08500FAE700BF70
:109A40009CFA0500014827F09FBE00BFE8030020F4
:109A500007B534F07AFE4FF47A72A0FB020302FBE2
:109A60000131C00B074A40EA4140106000234FF427
:109A700000420548CDE9002328F040FD002003B056
:109A80005DF804FBD054002020110020014B187811
:109A900000F0CABC42AD0020044B1A78824202D0CA
:109AA0001870FFF7F3BF0020704700BF42AD0020E1
:109AB00008B534F04AFE4FF47A72A0FB020302FBB1
:109AC0000131084AC30B126843EA41439B1A47F22B
:109AD0003052934204DDBDE808400120FFF7DCBFAF
:109AE00008BD00BFD054002008B534F02EFE4FF45E
:109AF0007A72A0FB020302FB0131C00B044A40EA68
:109B000041401060BDE808400020FFF7C5BF00BF1E
:109B1000D0540020014B1878704700BF42AD0020A0
:109B2000F0B5174C174E184D184F91B0B44202D3F0
:109B3000002011B0F0BDA388FBB92068E8B103682C
:109B4000DBB134F0A3F9C0B12A88013292B2A2800D
:109B5000394668462A8028F085FD23680C4A1B6830
:109B600020210DEB010028F051FD08A8FCF7F4FAC4
:109B700008A90246684607F0DFF90834D6E700BFB7
:109B8000501600202018002040AC0020AC5D0600DC
:109B90006B5E06002DE9F04F83B000AF0D46164610
:109BA00020493A469A462CF0F0FD80B1386870B1F1
:109BB0000A22391D28F0F4FD7B6893F800B0E846CE
:109BC0000446BBF1000F06D06FF01500C5460C37F8
:109BD000BD46BDE8F08F3F2DF6D805F1080323F010
:109BE0000703ADEB030D2A4669465046B0470028EF
:109BF000E946EBDD0DF805B00B4E0C4DB542E3D256
:109C00002B6848461968FCF795FA40B9084BA2B290
:109C10001C88AA80944238BF14461C80D6E70835B9
:109C2000ECE700BFC15D06002018002050160020A0
:109C300040AC0020F8B5044610B900252846F8BD10
:109C40000378002BF9D00F4E0F4FBE420FD30D4EAD
:109C5000BE42F2D2306834F019F930B1356821468D
:109C60002868FCF767FA0028E8D00836F0E7306883
:109C700034F00CF918B135682B68A342DED00836F1
:109C8000E3E700BF788706004889060070B50546FF
:109C900098B94FF6FF7070BD0834B442F9D220680D
:109CA00034F0F4F80028F7D0236829461868FCF748
:109CB00041FA0028F0D1A088EDE7014C014EECE715
:109CC000501600202018002070B5094C094E05469A
:109CD000B44201D3002008E0206834F0D7F828B15E
:109CE000A388AB4202D12368186870BD0834EFE73F
:109CF000501600202018002070B5194C194D8CB05A
:109D00000022002303A9204627F0CEF908B10CB0A9
:109D100070BD2B68059E5868DDE903122AF0D1F862
:109D20000028EDDBFF238DF81830B6FA86F35B09C7
:109D300007908DF8203034F008FD4FF47A72A0FBC4
:109D4000020302FB0131C00B40EA4140C90B8DE820
:109D5000030006ABCDE90A010FCB00F07FFBCFE794
:109D60006C120020CC5500201FB50A4C2468A46852
:109D700084420DD183F00103CDE90112039306481B
:109D80000022002301A927F031F9044827F0FCFC48
:109D900004B010BDCC5500206C120020BC55002032
:109DA0001FB50023CDE90233044B8DF80C0001A848
:109DB00001932AF0A2F805B05DF804FBB408060090
:109DC0000268034B9A420CBF08300020704700BF66
:109DD000B4080600014B036003207047A805060085
:109DE000014B03603A207047D4540020094B0A4AC3
:109DF0001B68934209D0094A934208D0084A93420B
:109E00000CBF02206FF01200704700207047012045
:109E1000704700BFCC550020A00806008C08060043
:109E20007808060008B5074B93F90010002906DBF7
:109E3000FFF7DCFFC0B2401A18BF012008BD0020A8
:109E4000FCE700BFC70F002007B5FFF7CFFF0DF1FC
:109E500007018DF807000122024807F06DF803B0F2
:109E60005DF804FBD35D06000228F8B500F28C8093
:109E7000022900F28980884209D10021914202D151
:109E800000263046F8BD43F821100131F6E7504D69
:109E900055F820404F4855F8211084420E6976D07D
:109EA00081424D4800F09080844224D1A14247D0A5
:109EB0004A48814247D04A4D0024964264D8184609
:109EC0004FF0FF3134F035FD002203469642D8DDD5
:109ED000002D57D0002C51D02046002150F8047F8F
:109EE000974244D105EB8101496843F822100132C1
:109EF0009642F1DCC5E7814238480FD18442384CA4
:109F000030D00025D9E73448814201D1344C1BE0E0
:109F1000324881421FD0334D0024CEE7844203D023
:109F2000814222D1304CECE7A14218D02E4D0024C2
:109F3000C3E7814214BF2B4C2B4C002DBDD030E029
:109F4000274C25462DE0284CA4F1EC0529E0254CB2
:109F500004F5EC7525E0244CA4F5EC7521E0224CC9
:109F6000EFE7204C04F1EC051BE00024C9E70131C8
:109F70003A29B3D10132B242ACDB82E701329642D8
:109F8000FCDC7EE70132A1E76FF0150679E7A1421C
:109F9000B9D1144D11488442CBD1A142D7D1124D31
:109FA0002C462046AC4604F1E80E50F8041F5CF83D
:109FB000047F01310137B94238BF39468E4238BF7C
:109FC0000E468645F1D178E78442CAD00025E1E704
:109FD000A8050600A00806008C0806007808060000
:109FE000A0060600B40506008C07060038B5044636
:109FF00000283CD01F4D2B68834232D053B1986863
:10A0000040B183685B6803B198472B68002198686A
:10A0100005F084FD184B9C4225D0184B9C4224D05F
:10A02000174B9C420CBF02216FF01201154B3A22D4
:10A0300001F0EF010020FFF717FF002812DBA068F6
:10A040002C6070B1012105F069FD2B689868836868
:10A050000D491B6898472B68986883689B6803B113
:10A060009847002038BD0021E0E70121DEE76FF0CE
:10A070001200F7E7CC550020A00806008C08060067
:10A0800078080600D4540020699D0200022838B5E3
:10A0900005460BD8074B53F82000FFF7A7FF041E17
:10A0A00002DB2846FFF77CFE204638BD6FF0150422
:10A0B000FAE700BFA8050600F7B50C4615460D499E
:10A0C00001AA1E462CF061FB68B1019B6BB9012C03
:10A0D0000DD1094F224639463046A847002802DDF7
:10A0E0003878FFF7D3FF03B0F0BD0020FBE76FF037
:10A0F0001500F8E7E45D0600C70F00200148FFF7F0
:10A1000075BF00BFA008060070B50F490F48104D7D
:10A1100034F032F9002455F8046BB06830B12CF0FB
:10A1200046F918B1B06801212CF015F90134032C5F
:10A13000F1D1084A002342F8043B01333A2BFAD10B
:10A14000BDE87040FFF7DABFF99C0200BC55002063
:10A15000A8050600D4540020F8B50F4D0F4E761B0D
:10A1600007460C4605EBC105C6F3C706A64201DC4F
:10A1700000200CE02A683B689A4209D13C716B6868
:10A1800038461B68984718B1431E012BF0D9F8BD1B
:10A1900001340835EAE700BF746E0600346F06002C
:10A1A00070B40D4B0D4CE41A0022C4F3C704A24254
:10A1B00003DB6FF0150070BC70471E680568AE4287
:10A1C00002F1010206D15D688D4203D170BCD1B2AB
:10A1D000FFF7C2BF0833EAE7746E0600346F06006B
:10A1E0000D4B0E4AD21A70B4C2F3C7020024944237
:10A1F00003DB6FF0150070BC70471E680568AE4247
:10A2000006D15D688D4203D1E1B270BCFFF7A4BFF7
:10A2100001340833EBE700BF746E0600346F0600AC
:10A2200037B501A826F028FD174D019C00232B60AF
:10A230001823584318380444019B9C4202D2002042
:10A2400003B030BD204633F021FED0B120462CF0C3
:10A2500078F8B0B920462CF0A0F8014688B920461D
:10A2600005F05CFC20F0200378330AD010F1860F53
:10A2700007D00028E4DB2B68044A42F8234001336E
:10A280002B60183CD8E700BFD0550020D410002028
:10A2900070B5084D084E2C68013C002C02DA0023F2
:10A2A0002B6070BD56F82400012105F037FC013CFD
:10A2B000F3E700BFD0550020D410002000B58BB0CC
:10A2C000064B074A2821684628F0A0F905490122D3
:10A2D000684606F031FE0BB05DF804FB515E0600E7
:10A2E0005B5E060043AD00202DE9F8434768044655
:10A2F00000254FF001087B68AB420DD82149224868
:10A3000034F096F8A3681B680BB12046984739894A
:10A3100039BB0020BDE8F8833A6802EBC50352F868
:10A3200035001979DB88D0F810C0D0F80890DCF837
:10A330000060DA0754BF43F4B01383F4D01323F45E
:10A34000801208FA01FEDB074CBF46EA0E0626EA39
:10A350000E06CCF80060D9F80030984770B9013586
:10A36000C9E740F2E7304FF47A72002300EBC130C6
:10A370000021FBF7C5FE34F06FF9CAE76FF0040067
:10A38000C8E700BFBDA20200681B002008B5074B4C
:10A390005A784AB901221A7005480022002327F092
:10A3A00061FA044829F0F0FD002008BD43AD00200B
:10A3B000681B00206CFA050008B54FF4F01200236A
:10A3C000024827F083FA00EAE07008BD681B00200D
:10A3D000F7B50C461646114901AA1F462CF0D5F9CF
:10A3E000B0B1019BA3B9012C15D10D4D22462946D0
:10A3F0003846B047002806DB2B780A486C7023B13A
:10A4000029F0C2FD002003B0F0BD29F0D9FDF9E725
:10A410006FF00100F7E76FF01500F4E7515E0600FA
:10A4200043AD00206CFA05001FB50023CDE90233CF
:10A43000044B8DF80C0001A8019329F05EFD05B0D6
:10A440005DF804FBD80806000268034B9A420CBF73
:10A4500008300020704700BFD808060084B030B52F
:10A4600089B00CAC84E80F00002301930CAD084BBD
:10A4700000930FCD02AC0FC495E8030084E80300FD
:10A48000684629F03AFD09B0BDE8304004B0704795
:10A49000DC0806000268034B9A420CBF083000201B
:10A4A000704700BFDC08060084B030B58BB00EAC3E
:10A4B00084E80F00002301930EAD084B00930FCDED
:10A4C00002AC0FC495E80F0084E80F00684629F03D
:10A4D00014FD0BB0BDE8304004B07047E008060042
:10A4E0001FB50023CDE90233044B8DF80C0001A801
:10A4F000019329F002FD05B05DF804FBE4080600B5
:10A5000082B038B504A981E80C000546114826F050
:10A51000BFFB0446A0B1AB68012B0CD0022B05D0C9
:10A52000A3B9BDE8384002B029F09EBD29F0A3FDD3
:10A5300000282046F5DCBDE8384002B029F08DBD8A
:10A540006FF00400BDE8384002B070476FF085003E
:10A55000F8E700BF515E060082B010B502A981E89D
:10A560000C0004460B4826F093FB78B1A368022B3D
:10A5700004D00020BDE8104002B0704729F07BFDF8
:10A580000028CCBF00200120A060F2E76FF004009B
:10A59000F0E700BF515E0600014B1878704700BF1E
:10A5A00047AD00200D4A52F82030013342F82030E8
:10A5B0000B4A0123117883400B430A490978DBB227
:10A5C000137023EA01030849084A097850780B43BD
:10A5D000181A537018BF0120704700BFD8550020CB
:10A5E00047AD002045AD002046AD0020D50F00202E
:10A5F00010B5114A52F82030002B19DD013B42F80A
:10A6000020300E4A2BB913780121814023EA01033F
:10A6100013700B480B4B047810780B4A597812785A
:10A6200020EA040010435870401A18BF012010BDE2
:10A630006FF01500FBE700BFD855002047AD0020A4
:10A6400045AD0020D50F002046AD0020044A01236F
:10A6500012788340D8B213401B1A584258417047B1
:10A6600047AD002010B5084B084A1870084B5178C8
:10A670001C78084B1B7823EA040318435070401AD7
:10A6800018BF012010BD00BF46AD0020D50F00202F
:10A6900045AD002047AD0020074B00221A70074B44
:10A6A000074A1978074B50781B7823EA0103181AD8
:10A6B000537018BF0120704746AD002045AD002003
:10A6C000D50F002047AD0020074B084A1870084BF3
:10A6D00051781B7823EA000306480078184350702D
:10A6E000401A18BF0120704745AD0020D50F00204B
:10A6F00047AD002046AD0020074B084900221A70E4
:10A70000074B084A1B78097850780B43181A537086
:10A7100018BF0120704700BF45AD002046AD0020A6
:10A7200047AD0020D50F0020A0F1E003072B03D890
:10A730002030C0B2FFF736BF064B062213F8011FC8
:10A7400019B1013AFAD10020704718700028F8D0EA
:10A75000F9E700BFD70F0020A0F1E003072B10B4EA
:10A7600005D820305DF8044BC0B2FFF741BF00238D
:10A77000064A194612F8014F0133A04208BF117072
:10A78000062BF7D100205DF8044B7047D70F00204F
:10A79000A0F1E003072B03D82030C0B2FFF756BF6B
:10A7A000064A002312F8011F884204D00133062B09
:10A7B000F8D1002070470120704700BFD70F00205C
:10A7C000024B00221A605A60704700BFD60F00206B
:10A7D000B0F5805F10B510D20949002301EB4302A8
:10A7E000B2F8014024B10133062BF7D1002010BD8F
:10A7F000A2F801000028F6D0F8E76FF08500F6E730
:10A80000C80F002030B50023074C194604EB430263
:10A810000133B2F80150854204BF51709170062B8C
:10A82000F4D1002030BD00BFC80F0020024B002231
:10A830001A605A609A607047C90F0020074A0023C7
:10A8400002EB4301B1F80110814204D00133062B21
:10A85000F6D1002070470120704700BFC80F0020CC
:10A8600000487047D50F002000487047C80F0020EF
:10A870002DE9F0410B4E337883B10B4CDFF82C807F
:10A88000002542F20F7720464146013533F0D0FDD6
:10A890000A2D44F8207C04F15804F4D100203070D3
:10A8A000BDE8F081DE0F0020F821002047440500BC
:10A8B0002DE9F041C269037ED17D90B0044609B113
:10A8C000032B3DD0023B012B517D07D8002937D106
:10A8D000204610B0BDE8F04129F08BBD21B1937D39
:10A8E00013B9204629F023FD0AAD1822002128467D
:10A8F00034F01FF8D4E90467D4F8008023798DF888
:10A9000038301022002106A8CDE90C67CDF82C8044
:10A9100034F00FF8E3699B680793E36808930A4BE8
:10A92000C3E90267C3F800800123049310AB13E965
:10A930000F008DE80F0006A895E80C0029F0B6F985
:10A9400010B0BDE8F08100BF000000200B4A30B518
:10A9500000230446282000FB03F18D18515C41B907
:10A960000FCC0FC50FCC0FC594E8030085E803009A
:10A9700030BD0133282BEED1FAE700BF981B002031
:10A980002DE9F843027E0346002A6ED13B4D2A682A
:10A9900082426AD1D269547D24B119B9BDE8F84325
:10A9A00029F027BD107D032828D8DFE800F0020E2B
:10A9B0001F600139042921D8DFE801F01E032005BA
:10A9C0001E00022119E0032117E00139042915D8DE
:10A9D00001A050F821F000BFF9A90200FDA9020072
:10A9E000C3A90200C7A90200F9A902000429EAD0FC
:10A9F00001F0FB01012901D101211976197EA1B3D2
:10AA0000D06900280DDD5C6D611C0AD01C3200216C
:10AA100052F8046FA64204D001318842F8D10122D5
:10AA20001A76002218462A60FFF742FF2C68E4B924
:10AA3000134EDFF85080A14616F8087CAFB12B68A2
:10AA400006F8089C23B14FF4A470002133F004FEF3
:10AA5000012F01D0022F03D141463046FFF7C0FB42
:10AA60000134282C06F12806E6D1BDE8F883022936
:10AA7000A7D0BFD904390129BED9BFE708570020A4
:10AA8000A01B00207C11060082B02DE9F0412F4E62
:10AA900006A981E80C000024582202FB04F0851965
:10AAA00031588B424AD12030304433F0CFFCEB692F
:10AAB0001968D5E904238A1843EBE17308998A429F
:10AAC000099A9341804603DA04212846FFF758FF8C
:10AAD000582707FB046701212846FFF751FFFB6950
:10AAE000DB7D53B13B7E032B07D1284629F049FC7F
:10AAF000012328463B76FFF7DBFE284629F041FC80
:10AB0000582303FB0463DB695A7D22B19B7D13B19B
:10AB1000284629F00CFC18F1770F4FF058031DBFA1
:10AB20005C4342F20F72331903FB046317BF3251C7
:10AB3000012200221A7683F8502002E001340A2C08
:10AB4000ABD1BDE8F041002002B07047D821002011
:10AB500082B02DE9F047044608A9406881E80C005E
:10AB600029F04EF83B4B1D687DB9D4E902C23A4F3B
:10AB70004FF0580E42F20F780EFB05F6F419B95952
:10AB8000414507D001350A2DF6D1BDE8F047002038
:10AB900002B07047D0F804809DF83010DDF82490A2
:10ABA000DFF8B8E02171C4E902C2DDE90AC0C4E9F6
:10ABB00004C000214FF0FF3247F80690217662650D
:10ABC000C4F81C80DEE902211C60D8F8103013EBB9
:10ABD000020A41EBE373D44570EB03030CDBDEF8B0
:10ABE000003099450CD1D8F80C309A1841EBE3713C
:10ABF000944570EB010103DA05212046FFF7C0FE02
:10AC000020460021FFF7BCFE582303FB0575D8F84A
:10AC1000004029690C4433F098FD4FF47A72A0FB90
:10AC2000020302FB0131C30B43EA4143E11A21EA6B
:10AC3000E17140F2E7304FF47A72002300EBC1304B
:10AC40004914FBF75DFA203602460B46B81926F088
:10AC500009FE9AE708570020D821002000000020B4
:10AC60002DE9F0418AB00446FFF714FC00286CD0AF
:10AC70002046FFF70FFC524D47680446002642F27B
:10AC80000F782B689F420CD043450AD0EB69DB7DDF
:10AC90003BB12B7E032B04D102232B762846FFF7F2
:10ACA00007FE01360A2E05F15805EAD1454D286800
:10ACB00008B900202CE0C369227A197E914204D0A1
:10ACC000426D013204BF6268426501686268914268
:10ACD000EFD01968D0E904238A1843EBE173D4E973
:10ACE0000461B2428B4116DB237ADBB1012321469A
:10ACF00002A88DF8003029F08DF96846FFF726FE8E
:10AD0000217A2868C1F10301C9B2FFF739FE022098
:10AD10000AB0BDE8F0810421FFF732FE2B68002B5A
:10AD2000C7D0E1E76068284A11780029C1D001291D
:10AD300005D15169884202D1117E0029D6D1013353
:10AD4000282B02F12802EFD1B3E7204601F068FD7D
:10AD50000028DDD0204601F063FD837A01469BB1D7
:10AD60004368E03B072B02D80378072B0CD0174B26
:10AD7000D1E90402D3E9025485429441BEBFC3E93C
:10AD800002024FF000441C600E4B18680028BFD030
:10AD90004B68E03B072B8CD80B78072B89D1C36914
:10ADA0005B7D13B1007E0028B2D002A802248DF88A
:10ADB00000402AF06EF86846FFF7C8FDA7E700BF1D
:10ADC000D821002008570020981B002000000020F8
:10ADD0002DE9F0410B4E337883B10B4CDFF82C801A
:10ADE00000254FF0FF3720464146013533F020FB68
:10ADF0000A2D44F8207C04F15804F4D1002030706E
:10AE0000BDE8F081DF0F0020682500208F45050098
:10AE10002DE9F04FA3B001F003FD044600287FD0D8
:10AE2000037A47680293837A0393036901930DF1D0
:10AE3000380BA7F1E003B0F80080D0F814A0DFF8D9
:10AE40003491049318AD5E46D9F8002000230132F6
:10AE500046F8043B45F8043B37D0D9F80C20444968
:10AE6000D0680592FBF766F9059A60B9D9F8081021
:10AE700088B2B84207D1C1F30740404503D1029BD5
:10AE8000B3EB116F21D0039B002B5ED0927932B1CE
:10AE9000049B072B03D85FFA88F2072A15D099F88C
:10AEA000502092B9D9F854207AB9484629F07EFB4F
:10AEB000D9E9061251EA020035D0019B994272EBA2
:10AEC0000A0230DA484629F057FB18AB9E4209F1D6
:10AED0005809B9D100255BF8040B18B1019A534603
:10AEE00029F06EFB01350A2DF5D10025DFF88880A9
:10AEF000284618AF57F8256076B138B9214606A81C
:10AF000029F0C7FF414606A8FFF74AF9019A5346C0
:10AF1000304629F0D2FA012001350A2DEAD140004D
:10AF200023B0BDE8F08FD9F80C20517909B146F86B
:10AF3000049C99F8101019B112790AB145F8049CD3
:10AF400089F85080C9F85470BFE799F81020002A9A
:10AF5000BBD099F850204245B7D1D9F85420BA4215
:10AF6000B3D1484629F022FB45F8049CADE700BF69
:10AF7000955D060048250020B011060082B02DE93D
:10AF8000F041044606A9406881E80C00DDE9088725
:10AF900028F036FE43682D48079AD3F80CC0A668FF
:10AFA0000021044603689A423BD1C368DD68AC4582
:10AFB00037D18568AE4234D1457C95BB58254D4389
:10AFC000601990F85020B2BB582202FB01410122C7
:10AFD0000A741E6816EB080647F10007C1E9066708
:10AFE00033F0B3FB4FF47A72A0FB020302FB013192
:10AFF000C30B43EA4143F61A002E17DD4FF4004716
:10B0000040F2E73000214FF47A720023E6FB07019B
:10B01000FBF776F8203502460B46601926F022FC35
:10B0200004E001310A2900F15800BBD1BDE8F0412C
:10B03000002002B07047426D002AC5D042463B4610
:10B04000BDE8F04102B029F038BA00BF4825002021
:10B0500082B02DE9F84F82460AA940682E4E81E859
:10B060000C00DDE90C4528F0CBFD4768DDF82C909D
:10B07000DAF80800D7F80CC033460022B046196849
:10B08000894526D1D968C9688C4522D199688842FA
:10B090001FD1597CE9B94FF0580B0BFB028B584676
:10B0A00029F084FA22462B46584629F006FADAF8A7
:10B0B000081000233268013201D1727C7AB1013369
:10B0C0000A2B06F15806F5D1BDE8F84F002002B072
:10B0D000704701320A2A03F15803D0D1E7E758201C
:10B0E000434308EB030048F803904FF000084FF08B
:10B0F0000009C0E90217C0E906899DF838300371DC
:10B10000028280F8502042657B79002BDCD12246F8
:10B110002B4629F055FAD7E7482500202DE9F047BE
:10B1200001F07EFB08B1837AF3B90020BDE8F08717
:10B13000037A43F002030372F7E7232BF5D9A5F155
:10B14000E003072B23D8F3B2072B20D1EDE7A36848
:10B150009D4225D194F80C80FFF71EFA49EA0000C1
:10B1600038EA00081CD1E0E7104F3B78002BDCD018
:10B1700006884568072EA5F10403DBB2DDD1192B43
:10B18000D6D9232BD1D9A5F1E003072BCDD9084C73
:10B1900090F8089004F1240AEDB2A388B342D6D007
:10B1A0000C345445F9D100233B70BEE748AD002074
:10B1B000D411060070B501F033FB034608B1827A62
:10B1C000DAB9002070BD01318842FADD32F8025F41
:10B1D0001C88A542F7D10B4A03F1180615461868DA
:10B1E0005968144603C40833B3422246F7D1FFF727
:10B1F000D3F92B7A18432872E3E7034A00215078E9
:10B20000E2E700BFB8280020C00F002070B54D68ED
:10B2100004460E4628462349FAF78CFF10B92072DF
:10B22000012070BD20492846FAF784FF10B9012398
:10B230002372F5E71D492846FAF77CFF08B9022377
:10B24000F6E71B492846FAF775FF10B9B368636043
:10B25000E6E718492846FAF76DFF10B9B36823608E
:10B26000DEE715492846FAF765FF10B90123A373F5
:10B27000D6E712492846FAF75DFF10B90123E373B8
:10B28000CEE70F492846FAF755FF08B90223EEE743
:10B290000C492846FAF74EFF08B90223EFE70020D1
:10B2A000BFE700BF89600600936006009F6006004C
:10B2B000AD600600BC600600CC600600DD600600E4
:10B2C000EE600600FF6006002DE9F047D0F804901C
:10B2D0000469D9F80830DFF84CA0236200256381A7
:10B2E000A58109F10C07D9F80830AB4212D93946CB
:10B2F0002046FFF78BFF6E1C804680B97868514668
:10B30000FAF718FF48B9B6B26681D9F80830256255
:10B310009B1BA3810020BDE8F087A4F80E80354672
:10B320001037E0E7106106002DE9F043124B134C93
:10B33000134DD3E9067E0646002002464FF0010C6D
:10B340002B680CFA02F813EA080F0DD0E36813EB30
:10B3500007094EEBE3734E4571EB0303A5BF2B6862
:10B3600023EA080301302B600132162A04F1280475
:10B37000E6D1BDE8F08300BF402A00203814060063
:10B380006859002070B5094B094D1E7800241C70C7
:10B390002EB1284628F0B4FD0134B44201DB30461A
:10B3A00070BD2035284628F0A8FDF5E74AAD0020FD
:10B3B000402A00202DE9F04F43488FB033F046F883
:10B3C000424B00261E60424BB3F900A047F6FF73C4
:10B3D0009A4564D03F4F48234FF6FF7203FB06F0B7
:10B3E000C419395A914251D13B49DFF8FCB00A786F
:10B3F0009BF8009001320A7038491FFA8AF328221C
:10B400003B5202FB03130830B3F908803449C845A6
:10B41000A8BFC84628EAE8725201384433F061FAFE
:10B420004FEA4813DFF8B8C0A4F80280C646079375
:10B43000CE4539DB482303FB067708ADA9EB0809A5
:10B440001822002128463C6A8BF8009033F071FAEC
:10B450000AF13A030993FF238DF83030214BE217AC
:10B46000C3E90042CDE90A421C4A28230AFB032A09
:10B47000012304930EAB13E90F008DE80F000AF1CE
:10B48000140095E80C0028F011FC04E00136042EAD
:10B49000A4D1FFF777FF0E4A47F6FF7313800FB072
:10B4A000BDE8F04FFFF76EBF079B0CEB03050FCD18
:10B4B00064460FC495E80F000EF1010E84E80F00FA
:10B4C0000CF1200CB4E700BFF028002068590020E0
:10B4D000C40F00202029002049AD002038140600A8
:10B4E000402A0020100000204AAD0020F8B5154B7E
:10B4F00015491648164D4FF6FF721A80A3F84820DA
:10B50000A3F89020A3F8D82032F092FF114B00222C
:10B510004FF0010CB3F908E00CFA02F71C460021C9
:10B5200007E054F8046B55F82600384345F8260028
:10B5300001317145F5D30132162A03F12803E9D10F
:10B540000020F8BD2029002071B60200F02800205C
:10B5500080580020381406002DE9F8433E4B3F4E3A
:10B560001C78D6E90027E4BB02F1004301333B43DA
:10B5700035D06FF0004533F0E8F84FF47A77A0FB50
:10B58000070307FB0131C30B43EA4143AB424FEAD8
:10B59000D131A1415DDA33F0D8F8A0FB070307FBF6
:10B5A0000131C00B40EA4140281A64EBD131C90394
:10B5B00041EA504140F2E733C003C0184FF47A72B9
:10B5C0004FF0000341F10001FAF79AFD02460B46E5
:10B5D000234826F047F90028A8BFC6E90054BDE873
:10B5E000F88300241F49DFF884E06FF0004523460C
:10B5F0004FF00108DEF8000008FA03FC1CEA000F17
:10B6000008D0C8684FEAE07CA8427CEB0409BCBFC4
:10B61000054664460133162B01F12801EAD112498F
:10B62000D1E90631ED1844EB0104A74208BFAA4254
:10B63000D5D06FF000439C4208BFB5F1FF3F9AD1CF
:10B6400000230022C6E900230548BDE8F84332F094
:10B65000FDBE00221346BBE74AAD0020E8280020CB
:10B66000F028002038140600402A002068590020E5
:10B6700038B5114CD4E9003213431CD033F065F8CF
:10B6800003460D46D4E900014FF47A74A3FB04325B
:10B6900004FB0522DB0B43EA424383424FEAD232EA
:10B6A0008A4108DBFFF740FE08B9FFF783FEBDE8DB
:10B6B0003840FFF751BF38BDE82800202DE9F04F92
:10B6C0009DB00446FEF7E6FE002800F06D8120469E
:10B6D000FEF7E0FE0546002800F08181067A002E84
:10B6E00000F0AA80A74EA84F3478D0E90498002C27
:10B6F00049D1D0F804A000F0C3FD012303FA00FCF7
:10B70000A24BA3481A68DFF88CE25B68069207EB4D
:10B710008A0A07932246DAF80030012101FA02F77B
:10B720003B4216D0036913B113EA0C0F11D0B0F9E4
:10B730000A30069913EB010B079941EBE373D945E6
:10B7400078EB0303A1BFDEF800301F43CEF8007092
:10B7500001340132162A00F12800DCD1002C00F05F
:10B760003E813378022B36D1FFF7F6FE0025894A59
:10B77000136813F001035DD101210133162B43D16E
:10B780006FF0150552E048464146FFF7CDFD814B6D
:10B790006A6857F822401A68377814401C603B46A4
:10B7A0003CB9022F17D1FFF7D7FE2546FFF702FE5F
:10B7B0003CE0621E144006D1022F0BD12546FFF754
:10B7C000CBFE0124D3E7022F1CD1FFF7C5FE0025D5
:10B7D0003C46CCE70124704F07EB43175A1C29461F
:10B7E0000CA83D460CAF327028F014FC0FCF0FC5EB
:10B7F00097E80F0085E80F00FFF7AEFE0225002C4A
:10B80000B5D1D3E70224E6E7106801FA03F707424F
:10B81000B3D05F4A282101FB0322B2F90810327825
:10B82000914203D15D4A012C1380BFD028461DB040
:10B83000BDE8F08F0023ECE7FFF7BCFD6B680993D0
:10B840002B690793564B574F1B7808900B93B946BB
:10B850000B9B9E420CDB089B012B40F3C0802946CA
:10B8600014A828F0D7FB14A828F047FB0225DDE731
:10B870007B88B7F800800693454B282202FB0833EB
:10B880004FF0000CB3F908300A93BE46E24601249B
:10B89000069B534513DC4837BCF1000F6FD0069A66
:10B8A000482303FB0693013A5A80394B282202FBB6
:10B8B000083393F82430FBB114BB0125B6E7BCF183
:10B8C000000F10D00EF1080BBBE80F00AEF118040A
:10B8D0000FC49BE80F0084E80F0000240AF1010A5E
:10B8E0000EF1200ED4E7DEF81430099A9A4214BF04
:10B8F00000244FF0010CF1E7069B0A9A934220D1F5
:10B9000014AD18220021284633F013F808F13A0349
:10B910001593079B079ADB17CDE916231C4AFF23D3
:10B920008DF86030282303FB08280023049316AB0E
:10B930000FCB8DE80F0008F1140095E80C0028F0FB
:10B94000B5F9002CB9D0164B1C78013CE4B2A642E4
:10B950001C7008D004EBC401482209EBC10102FBB2
:10B96000069032F0BEFF48225443002109EB040048
:10B9700032F0DFFF4FF6FF7329F804309DE7013600
:10B9800066E700BF4AAD0020805800201800002064
:10B990003814060068590020402A0020C40F0020F7
:10B9A00049AD002020290020204600F039FFB0B129
:10B9B000204600F035FF837A8BB14368E03B072BCC
:10B9C00002D80378072B0AD0064BD0E90412D3E93A
:10B9D000000388429341BCBF034BC3E9001200251A
:10B9E00024E700BF100000201800002010B5094B0C
:10B9F00000211A465C68844205D15C7F1CB958233B
:10BA000003FB012010BD01310A2903F15803F1D1D4
:10BA10000020F7E7802A00202DE9F0410B4E337813
:10BA200083B10B4CDFF82C8000254FF0FF37204608
:10BA30004146013532F0FCFC0A2D44F8247C04F127
:10BA40005804F4D100203070BDE8F081E00F0020F0
:10BA5000A82A0020474C050082B02DE9F84308A928
:10BA600081E80C004068DDE90A5728F0C9F8099E12
:10BA7000D0F804803046FFF7B9FF0446C0B9344B14
:10BA800001461A465868013031D1582359430023E2
:10BA900054185350002000219DF830202272C4E930
:10BAA000080101226660C4F818802275A283A3777A
:10BAB0004FF0010904F1280684F81490304632F062
:10BAC000C5FC773008BF84F81D902368D8F804209F
:10BAD00093423CBF013323602268D8F804309A4275
